:100000000C944A000C9461000C9461000C94610003
:100010000C9461000C9461000C9461000C946100DC
:100020000C9461000C9461000C9461000C946100CC
:100030000C9461000C9461000C9461000C946100BC
:100040000C9461000C9461000C9461000C946100AC
:100050000C9461000C9461000C9461000C9461009C
:100060000C9461000C9461000C9461000C9461008C
:100070000C9461000C9461000C9461000C9461007C
:100080000C9461000C9461000C9461000C9461006C
:100090000C94610011241FBECFEFD0E1DEBFCDBFB5
:1000A00011E0A0E0B1E0E6EEF0E000E00BBF02C03E
:1000B00007900D92A030B107D9F70E9469000C9407
:1000C00071000C9400000E946F0008950E946E0061
:1000D00008950E946E000E946F00FFCF089508955A
:0600E0000895F894FFCF23
:00000001FF
